{
  "contractName": "TokenDistributor",
  "abi": [
    {
      "constant": false,
      "inputs": [],
      "name": "renounceOwnership",
      "outputs": [],
      "payable": false,
      "stateMutability": "nonpayable",
      "type": "function"
    },
    {
      "constant": true,
      "inputs": [],
      "name": "owner",
      "outputs": [
        {
          "name": "",
          "type": "address"
        }
      ],
      "payable": false,
      "stateMutability": "view",
      "type": "function"
    },
    {
      "constant": true,
      "inputs": [
        {
          "name": "",
          "type": "address"
        }
      ],
      "name": "allowedTransactors",
      "outputs": [
        {
          "name": "",
          "type": "bool"
        }
      ],
      "payable": false,
      "stateMutability": "view",
      "type": "function"
    },
    {
      "constant": false,
      "inputs": [
        {
          "name": "_newOwner",
          "type": "address"
        }
      ],
      "name": "transferOwnership",
      "outputs": [],
      "payable": false,
      "stateMutability": "nonpayable",
      "type": "function"
    },
    {
      "anonymous": false,
      "inputs": [
        {
          "indexed": true,
          "name": "previousOwner",
          "type": "address"
        }
      ],
      "name": "OwnershipRenounced",
      "type": "event"
    },
    {
      "anonymous": false,
      "inputs": [
        {
          "indexed": true,
          "name": "previousOwner",
          "type": "address"
        },
        {
          "indexed": true,
          "name": "newOwner",
          "type": "address"
        }
      ],
      "name": "OwnershipTransferred",
      "type": "event"
    },
    {
      "constant": false,
      "inputs": [
        {
          "name": "_transactor",
          "type": "address"
        }
      ],
      "name": "addTransactor",
      "outputs": [],
      "payable": false,
      "stateMutability": "nonpayable",
      "type": "function"
    },
    {
      "constant": false,
      "inputs": [
        {
          "name": "_transactor",
          "type": "address"
        }
      ],
      "name": "removeTransactor",
      "outputs": [],
      "payable": false,
      "stateMutability": "nonpayable",
      "type": "function"
    },
    {
      "constant": false,
      "inputs": [
        {
          "name": "_tokenAddress",
          "type": "address"
        },
        {
          "name": "_addresses",
          "type": "address[]"
        },
        {
          "name": "_values",
          "type": "uint256[]"
        }
      ],
      "name": "transfer",
      "outputs": [
        {
          "name": "",
          "type": "bool"
        }
      ],
      "payable": false,
      "stateMutability": "nonpayable",
      "type": "function"
    }
  ],
  "bytecode": "0x608060405260008054600160a060020a0319163317905561074f806100256000396000f3006080604052600436106100825763ffffffff7c01000000000000000000000000000000000000000000000000000000006000350416631f0f4f7a811461008757806370f4f9df146100aa578063715018a6146100cb57806372a503be146100e05780638da5cb5b14610190578063c9853211146101c1578063f2fde38b146101e2575b600080fd5b34801561009357600080fd5b506100a8600160a060020a0360043516610203565b005b3480156100b657600080fd5b506100a8600160a060020a036004351661023b565b3480156100d757600080fd5b506100a8610279565b3480156100ec57600080fd5b5060408051602060046024803582810135848102808701860190975280865261017c968435600160a060020a031696369660449591949091019291829185019084908082843750506040805187358901803560208181028481018201909552818452989b9a9989019892975090820195509350839250850190849080828437509497506102e59650505050505050565b604080519115158252519081900360200190f35b34801561019c57600080fd5b506101a561065f565b60408051600160a060020a039092168252519081900360200190f35b3480156101cd57600080fd5b5061017c600160a060020a036004351661066e565b3480156101ee57600080fd5b506100a8600160a060020a0360043516610683565b600054600160a060020a0316331461021a57600080fd5b600160a060020a03166000908152600160205260409020805460ff19169055565b600054600160a060020a0316331461025257600080fd5b600160a060020a03166000908152600160208190526040909120805460ff19169091179055565b600054600160a060020a0316331461029057600080fd5b60008054604051600160a060020a03909116917ff8df31144d9c2f0f6b59d69b8b98abd5459d07f2742c4df920b25aae33c6482091a26000805473ffffffffffffffffffffffffffffffffffffffff19169055565b3360009081526001602052604081205481908190819060ff16151561037a576040805160e560020a62461bcd02815260206004820152602660248201527f43616c6c6572206e6f74206f6e20746865207472616e736163746f722077686960448201527f74656c6973740000000000000000000000000000000000000000000000000000606482015290519081900360840190fd5b600160a060020a03871615156103da576040805160e560020a62461bcd02815260206004820152601560248201527f496e76616c6964205f746f6b656e416464726573730000000000000000000000604482015290519081900360640190fd5b8451865114610459576040805160e560020a62461bcd02815260206004820152602b60248201527f446966666572656e74206c656e67746820666f72205f6164647265737365732060448201527f616e64205f76616c756573000000000000000000000000000000000000000000606482015290519081900360840190fd5b600092505b855183101561065257858381518110151561047557fe5b906020019060200201519150848381518110151561048f57fe5b602090810290910101519050600160a060020a03821615156104fb576040805160e560020a62461bcd02815260206004820152601b60248201527f496e76616c69642064657374696e6174696f6e20616464726573730000000000604482015290519081900360640190fd5b60008111610553576040805160e560020a62461bcd02815260206004820152600d60248201527f496e76616c69642076616c756500000000000000000000000000000000000000604482015290519081900360640190fd5b604080517f23b872dd000000000000000000000000000000000000000000000000000000008152336004820152600160a060020a038481166024830152604482018490529151918916916323b872dd916064808201926020929091908290030181600087803b1580156105c557600080fd5b505af11580156105d9573d6000803e3d6000fd5b505050506040513d60208110156105ef57600080fd5b50511515610647576040805160e560020a62461bcd02815260206004820152600f60248201527f5472616e73666572206661696c65640000000000000000000000000000000000604482015290519081900360640190fd5b60019092019161045e565b5060019695505050505050565b600054600160a060020a031681565b60016020526000908152604090205460ff1681565b600054600160a060020a0316331461069a57600080fd5b6106a3816106a6565b50565b600160a060020a03811615156106bb57600080fd5b60008054604051600160a060020a03808516939216917f8be0079c531659141344cd1fd0a4f28419497f9722a3daafe3b4186f6b6457e091a36000805473ffffffffffffffffffffffffffffffffffffffff1916600160a060020a03929092169190911790555600a165627a7a723058207da8736768230d4db7cfa3867b030da81a1dd254dbd599c843c7c5b6ebaa2bfe0029",
  "source": "pragma solidity ^0.4.24;\n\nimport \"../../node_modules/openzeppelin-solidity/contracts/ownership/Ownable.sol\";\n\n/**\n * @title A contract for distributing ERC20 tokens to multiple addresses in a single transaction.\n * */\n\ncontract ERC20 {\n    function transferFrom(address _from, address _to, uint256 _value) public returns (bool);\n}\n\ncontract TokenDistributor is Ownable {\n    // Whitelist of addresses allowed to make a transfer.\n    mapping (address => bool) public allowedTransactors;\n\n    function addTransactor(address _transactor) public onlyOwner {\n        allowedTransactors[_transactor] = true;\n    }\n\n    function removeTransactor(address _transactor) public onlyOwner {\n        delete allowedTransactors[_transactor];\n    }\n\n    /**\n    * @dev Transfer tokens to multiples recipients.\n    * @param _tokenAddress The address of the ERC20 token contract.\n    * @param _addresses The addresses to transfer to.\n    * @param _values The amount to be transferred to each address.\n    */\n    function transfer(address _tokenAddress, address[] memory _addresses, uint256[] memory _values) public returns (bool) {\n        require(allowedTransactors[msg.sender], \"Caller not on the transactor whitelist\");\n        require(_tokenAddress != 0x0, \"Invalid _tokenAddress\");\n        require(_addresses.length == _values.length, \"Different length for _addresses and _values\");\n\n        for (uint256 i = 0; i < _addresses.length; i++) {\n            address to = _addresses[i];\n            uint256 value = _values[i];\n\n            require(to != address(0), \"Invalid destination address\");\n            require(value > 0, \"Invalid value\");\n\n            require(ERC20(_tokenAddress).transferFrom(msg.sender, to, value), \"Transfer failed\");\n        }\n        return true;\n    }\n}",
  "sourcePath": "/Users/franck/src/dshop/packages/contracts/contracts/token/TokenDistributor.sol",
  "compiler": {
    "name": "solc",
    "version": "0.4.26+commit.4563c3fc.Emscripten.clang"
  },
  "schemaVersion": "2.0.3",
  "updatedAt": "2020-05-20T21:57:34.814Z"
}