{
  "contractName": "V01_Marketplace",
  "abi": [
    {
      "constant": true,
      "inputs": [
        {
          "name": "",
          "type": "uint256"
        },
        {
          "name": "",
          "type": "uint256"
        }
      ],
      "name": "offers",
      "outputs": [
        {
          "name": "value",
          "type": "uint256"
        },
        {
          "name": "commission",
          "type": "uint256"
        },
        {
          "name": "refund",
          "type": "uint256"
        },
        {
          "name": "currency",
          "type": "address"
        },
        {
          "name": "buyer",
          "type": "address"
        },
        {
          "name": "affiliate",
          "type": "address"
        },
        {
          "name": "arbitrator",
          "type": "address"
        },
        {
          "name": "finalizes",
          "type": "uint256"
        },
        {
          "name": "status",
          "type": "uint8"
        }
      ],
      "payable": false,
      "stateMutability": "view",
      "type": "function"
    },
    {
      "constant": true,
      "inputs": [],
      "name": "tokenAddr",
      "outputs": [
        {
          "name": "",
          "type": "address"
        }
      ],
      "payable": false,
      "stateMutability": "view",
      "type": "function"
    },
    {
      "constant": false,
      "inputs": [],
      "name": "renounceOwnership",
      "outputs": [],
      "payable": false,
      "stateMutability": "nonpayable",
      "type": "function"
    },
    {
      "constant": true,
      "inputs": [],
      "name": "owner",
      "outputs": [
        {
          "name": "",
          "type": "address"
        }
      ],
      "payable": false,
      "stateMutability": "view",
      "type": "function"
    },
    {
      "constant": true,
      "inputs": [
        {
          "name": "",
          "type": "address"
        }
      ],
      "name": "allowedAffiliates",
      "outputs": [
        {
          "name": "",
          "type": "bool"
        }
      ],
      "payable": false,
      "stateMutability": "view",
      "type": "function"
    },
    {
      "constant": true,
      "inputs": [
        {
          "name": "",
          "type": "uint256"
        }
      ],
      "name": "listings",
      "outputs": [
        {
          "name": "seller",
          "type": "address"
        },
        {
          "name": "deposit",
          "type": "uint256"
        },
        {
          "name": "depositManager",
          "type": "address"
        }
      ],
      "payable": false,
      "stateMutability": "view",
      "type": "function"
    },
    {
      "constant": false,
      "inputs": [
        {
          "name": "_newOwner",
          "type": "address"
        }
      ],
      "name": "transferOwnership",
      "outputs": [],
      "payable": false,
      "stateMutability": "nonpayable",
      "type": "function"
    },
    {
      "inputs": [
        {
          "name": "_tokenAddr",
          "type": "address"
        }
      ],
      "payable": false,
      "stateMutability": "nonpayable",
      "type": "constructor"
    },
    {
      "anonymous": false,
      "inputs": [
        {
          "indexed": true,
          "name": "party",
          "type": "address"
        },
        {
          "indexed": false,
          "name": "ipfsHash",
          "type": "bytes32"
        }
      ],
      "name": "MarketplaceData",
      "type": "event"
    },
    {
      "anonymous": false,
      "inputs": [
        {
          "indexed": true,
          "name": "party",
          "type": "address"
        },
        {
          "indexed": false,
          "name": "ipfsHash",
          "type": "bytes32"
        }
      ],
      "name": "AffiliateAdded",
      "type": "event"
    },
    {
      "anonymous": false,
      "inputs": [
        {
          "indexed": true,
          "name": "party",
          "type": "address"
        },
        {
          "indexed": false,
          "name": "ipfsHash",
          "type": "bytes32"
        }
      ],
      "name": "AffiliateRemoved",
      "type": "event"
    },
    {
      "anonymous": false,
      "inputs": [
        {
          "indexed": true,
          "name": "party",
          "type": "address"
        },
        {
          "indexed": true,
          "name": "listingID",
          "type": "uint256"
        },
        {
          "indexed": false,
          "name": "ipfsHash",
          "type": "bytes32"
        }
      ],
      "name": "ListingCreated",
      "type": "event"
    },
    {
      "anonymous": false,
      "inputs": [
        {
          "indexed": true,
          "name": "party",
          "type": "address"
        },
        {
          "indexed": true,
          "name": "listingID",
          "type": "uint256"
        },
        {
          "indexed": false,
          "name": "ipfsHash",
          "type": "bytes32"
        }
      ],
      "name": "ListingUpdated",
      "type": "event"
    },
    {
      "anonymous": false,
      "inputs": [
        {
          "indexed": true,
          "name": "party",
          "type": "address"
        },
        {
          "indexed": true,
          "name": "listingID",
          "type": "uint256"
        },
        {
          "indexed": false,
          "name": "ipfsHash",
          "type": "bytes32"
        }
      ],
      "name": "ListingWithdrawn",
      "type": "event"
    },
    {
      "anonymous": false,
      "inputs": [
        {
          "indexed": true,
          "name": "party",
          "type": "address"
        },
        {
          "indexed": true,
          "name": "listingID",
          "type": "uint256"
        },
        {
          "indexed": false,
          "name": "ipfsHash",
          "type": "bytes32"
        }
      ],
      "name": "ListingArbitrated",
      "type": "event"
    },
    {
      "anonymous": false,
      "inputs": [
        {
          "indexed": true,
          "name": "party",
          "type": "address"
        },
        {
          "indexed": true,
          "name": "listingID",
          "type": "uint256"
        },
        {
          "indexed": false,
          "name": "ipfsHash",
          "type": "bytes32"
        }
      ],
      "name": "ListingData",
      "type": "event"
    },
    {
      "anonymous": false,
      "inputs": [
        {
          "indexed": true,
          "name": "party",
          "type": "address"
        },
        {
          "indexed": true,
          "name": "listingID",
          "type": "uint256"
        },
        {
          "indexed": true,
          "name": "offerID",
          "type": "uint256"
        },
        {
          "indexed": false,
          "name": "ipfsHash",
          "type": "bytes32"
        }
      ],
      "name": "OfferCreated",
      "type": "event"
    },
    {
      "anonymous": false,
      "inputs": [
        {
          "indexed": true,
          "name": "party",
          "type": "address"
        },
        {
          "indexed": true,
          "name": "listingID",
          "type": "uint256"
        },
        {
          "indexed": true,
          "name": "offerID",
          "type": "uint256"
        },
        {
          "indexed": false,
          "name": "ipfsHash",
          "type": "bytes32"
        }
      ],
      "name": "OfferAccepted",
      "type": "event"
    },
    {
      "anonymous": false,
      "inputs": [
        {
          "indexed": true,
          "name": "party",
          "type": "address"
        },
        {
          "indexed": true,
          "name": "listingID",
          "type": "uint256"
        },
        {
          "indexed": true,
          "name": "offerID",
          "type": "uint256"
        },
        {
          "indexed": false,
          "name": "ipfsHash",
          "type": "bytes32"
        }
      ],
      "name": "OfferFinalized",
      "type": "event"
    },
    {
      "anonymous": false,
      "inputs": [
        {
          "indexed": true,
          "name": "party",
          "type": "address"
        },
        {
          "indexed": true,
          "name": "listingID",
          "type": "uint256"
        },
        {
          "indexed": true,
          "name": "offerID",
          "type": "uint256"
        },
        {
          "indexed": false,
          "name": "ipfsHash",
          "type": "bytes32"
        }
      ],
      "name": "OfferWithdrawn",
      "type": "event"
    },
    {
      "anonymous": false,
      "inputs": [
        {
          "indexed": true,
          "name": "party",
          "type": "address"
        },
        {
          "indexed": true,
          "name": "listingID",
          "type": "uint256"
        },
        {
          "indexed": true,
          "name": "offerID",
          "type": "uint256"
        },
        {
          "indexed": false,
          "name": "ipfsHash",
          "type": "bytes32"
        }
      ],
      "name": "OfferFundsAdded",
      "type": "event"
    },
    {
      "anonymous": false,
      "inputs": [
        {
          "indexed": true,
          "name": "party",
          "type": "address"
        },
        {
          "indexed": true,
          "name": "listingID",
          "type": "uint256"
        },
        {
          "indexed": true,
          "name": "offerID",
          "type": "uint256"
        },
        {
          "indexed": false,
          "name": "ipfsHash",
          "type": "bytes32"
        }
      ],
      "name": "OfferDisputed",
      "type": "event"
    },
    {
      "anonymous": false,
      "inputs": [
        {
          "indexed": true,
          "name": "party",
          "type": "address"
        },
        {
          "indexed": true,
          "name": "listingID",
          "type": "uint256"
        },
        {
          "indexed": true,
          "name": "offerID",
          "type": "uint256"
        },
        {
          "indexed": false,
          "name": "ipfsHash",
          "type": "bytes32"
        },
        {
          "indexed": false,
          "name": "ruling",
          "type": "uint256"
        }
      ],
      "name": "OfferRuling",
      "type": "event"
    },
    {
      "anonymous": false,
      "inputs": [
        {
          "indexed": true,
          "name": "party",
          "type": "address"
        },
        {
          "indexed": true,
          "name": "listingID",
          "type": "uint256"
        },
        {
          "indexed": true,
          "name": "offerID",
          "type": "uint256"
        },
        {
          "indexed": false,
          "name": "ipfsHash",
          "type": "bytes32"
        }
      ],
      "name": "OfferData",
      "type": "event"
    },
    {
      "anonymous": false,
      "inputs": [
        {
          "indexed": true,
          "name": "previousOwner",
          "type": "address"
        }
      ],
      "name": "OwnershipRenounced",
      "type": "event"
    },
    {
      "anonymous": false,
      "inputs": [
        {
          "indexed": true,
          "name": "previousOwner",
          "type": "address"
        },
        {
          "indexed": true,
          "name": "newOwner",
          "type": "address"
        }
      ],
      "name": "OwnershipTransferred",
      "type": "event"
    },
    {
      "constant": true,
      "inputs": [],
      "name": "totalListings",
      "outputs": [
        {
          "name": "",
          "type": "uint256"
        }
      ],
      "payable": false,
      "stateMutability": "view",
      "type": "function"
    },
    {
      "constant": true,
      "inputs": [
        {
          "name": "listingID",
          "type": "uint256"
        }
      ],
      "name": "totalOffers",
      "outputs": [
        {
          "name": "",
          "type": "uint256"
        }
      ],
      "payable": false,
      "stateMutability": "view",
      "type": "function"
    },
    {
      "constant": false,
      "inputs": [
        {
          "name": "_ipfsHash",
          "type": "bytes32"
        },
        {
          "name": "_deposit",
          "type": "uint256"
        },
        {
          "name": "_depositManager",
          "type": "address"
        }
      ],
      "name": "createListing",
      "outputs": [],
      "payable": false,
      "stateMutability": "nonpayable",
      "type": "function"
    },
    {
      "constant": false,
      "inputs": [
        {
          "name": "_seller",
          "type": "address"
        },
        {
          "name": "_ipfsHash",
          "type": "bytes32"
        },
        {
          "name": "_deposit",
          "type": "uint256"
        },
        {
          "name": "_depositManager",
          "type": "address"
        }
      ],
      "name": "createListingWithSender",
      "outputs": [
        {
          "name": "",
          "type": "bool"
        }
      ],
      "payable": false,
      "stateMutability": "nonpayable",
      "type": "function"
    },
    {
      "constant": false,
      "inputs": [
        {
          "name": "listingID",
          "type": "uint256"
        },
        {
          "name": "_ipfsHash",
          "type": "bytes32"
        },
        {
          "name": "_additionalDeposit",
          "type": "uint256"
        }
      ],
      "name": "updateListing",
      "outputs": [],
      "payable": false,
      "stateMutability": "nonpayable",
      "type": "function"
    },
    {
      "constant": false,
      "inputs": [
        {
          "name": "_seller",
          "type": "address"
        },
        {
          "name": "listingID",
          "type": "uint256"
        },
        {
          "name": "_ipfsHash",
          "type": "bytes32"
        },
        {
          "name": "_additionalDeposit",
          "type": "uint256"
        }
      ],
      "name": "updateListingWithSender",
      "outputs": [
        {
          "name": "",
          "type": "bool"
        }
      ],
      "payable": false,
      "stateMutability": "nonpayable",
      "type": "function"
    },
    {
      "constant": false,
      "inputs": [
        {
          "name": "listingID",
          "type": "uint256"
        },
        {
          "name": "_target",
          "type": "address"
        },
        {
          "name": "_ipfsHash",
          "type": "bytes32"
        }
      ],
      "name": "withdrawListing",
      "outputs": [],
      "payable": false,
      "stateMutability": "nonpayable",
      "type": "function"
    },
    {
      "constant": false,
      "inputs": [
        {
          "name": "listingID",
          "type": "uint256"
        },
        {
          "name": "_ipfsHash",
          "type": "bytes32"
        },
        {
          "name": "_finalizes",
          "type": "uint256"
        },
        {
          "name": "_affiliate",
          "type": "address"
        },
        {
          "name": "_commission",
          "type": "uint256"
        },
        {
          "name": "_value",
          "type": "uint256"
        },
        {
          "name": "_currency",
          "type": "address"
        },
        {
          "name": "_arbitrator",
          "type": "address"
        }
      ],
      "name": "makeOffer",
      "outputs": [],
      "payable": true,
      "stateMutability": "payable",
      "type": "function"
    },
    {
      "constant": false,
      "inputs": [
        {
          "name": "listingID",
          "type": "uint256"
        },
        {
          "name": "offerID",
          "type": "uint256"
        },
        {
          "name": "_ipfsHash",
          "type": "bytes32"
        }
      ],
      "name": "acceptOffer",
      "outputs": [],
      "payable": false,
      "stateMutability": "nonpayable",
      "type": "function"
    },
    {
      "constant": false,
      "inputs": [
        {
          "name": "listingID",
          "type": "uint256"
        },
        {
          "name": "offerID",
          "type": "uint256"
        },
        {
          "name": "_ipfsHash",
          "type": "bytes32"
        }
      ],
      "name": "withdrawOffer",
      "outputs": [],
      "payable": false,
      "stateMutability": "nonpayable",
      "type": "function"
    },
    {
      "constant": false,
      "inputs": [
        {
          "name": "listingID",
          "type": "uint256"
        },
        {
          "name": "offerID",
          "type": "uint256"
        },
        {
          "name": "_ipfsHash",
          "type": "bytes32"
        },
        {
          "name": "_value",
          "type": "uint256"
        }
      ],
      "name": "addFunds",
      "outputs": [],
      "payable": true,
      "stateMutability": "payable",
      "type": "function"
    },
    {
      "constant": false,
      "inputs": [
        {
          "name": "listingID",
          "type": "uint256"
        },
        {
          "name": "offerID",
          "type": "uint256"
        },
        {
          "name": "_ipfsHash",
          "type": "bytes32"
        }
      ],
      "name": "finalize",
      "outputs": [],
      "payable": false,
      "stateMutability": "nonpayable",
      "type": "function"
    },
    {
      "constant": false,
      "inputs": [
        {
          "name": "listingID",
          "type": "uint256"
        },
        {
          "name": "offerID",
          "type": "uint256"
        },
        {
          "name": "_ipfsHash",
          "type": "bytes32"
        }
      ],
      "name": "dispute",
      "outputs": [],
      "payable": false,
      "stateMutability": "nonpayable",
      "type": "function"
    },
    {
      "constant": false,
      "inputs": [
        {
          "name": "listingID",
          "type": "uint256"
        },
        {
          "name": "offerID",
          "type": "uint256"
        },
        {
          "name": "_ipfsHash",
          "type": "bytes32"
        },
        {
          "name": "_ruling",
          "type": "uint256"
        },
        {
          "name": "_refund",
          "type": "uint256"
        }
      ],
      "name": "executeRuling",
      "outputs": [],
      "payable": false,
      "stateMutability": "nonpayable",
      "type": "function"
    },
    {
      "constant": false,
      "inputs": [
        {
          "name": "listingID",
          "type": "uint256"
        },
        {
          "name": "offerID",
          "type": "uint256"
        },
        {
          "name": "_refund",
          "type": "uint256"
        },
        {
          "name": "_ipfsHash",
          "type": "bytes32"
        }
      ],
      "name": "updateRefund",
      "outputs": [],
      "payable": false,
      "stateMutability": "nonpayable",
      "type": "function"
    },
    {
      "constant": false,
      "inputs": [
        {
          "name": "ipfsHash",
          "type": "bytes32"
        }
      ],
      "name": "addData",
      "outputs": [],
      "payable": false,
      "stateMutability": "nonpayable",
      "type": "function"
    },
    {
      "constant": false,
      "inputs": [
        {
          "name": "listingID",
          "type": "uint256"
        },
        {
          "name": "ipfsHash",
          "type": "bytes32"
        }
      ],
      "name": "addData",
      "outputs": [],
      "payable": false,
      "stateMutability": "nonpayable",
      "type": "function"
    },
    {
      "constant": false,
      "inputs": [
        {
          "name": "listingID",
          "type": "uint256"
        },
        {
          "name": "offerID",
          "type": "uint256"
        },
        {
          "name": "ipfsHash",
          "type": "bytes32"
        }
      ],
      "name": "addData",
      "outputs": [],
      "payable": false,
      "stateMutability": "nonpayable",
      "type": "function"
    },
    {
      "constant": false,
      "inputs": [
        {
          "name": "listingID",
          "type": "uint256"
        },
        {
          "name": "target",
          "type": "address"
        },
        {
          "name": "value",
          "type": "uint256"
        },
        {
          "name": "ipfsHash",
          "type": "bytes32"
        }
      ],
      "name": "sendDeposit",
      "outputs": [],
      "payable": false,
      "stateMutability": "nonpayable",
      "type": "function"
    },
    {
      "constant": false,
      "inputs": [
        {
          "name": "_tokenAddr",
          "type": "address"
        }
      ],
      "name": "setTokenAddr",
      "outputs": [],
      "payable": false,
      "stateMutability": "nonpayable",
      "type": "function"
    },
    {
      "constant": false,
      "inputs": [
        {
          "name": "_affiliate",
          "type": "address"
        },
        {
          "name": "ipfsHash",
          "type": "bytes32"
        }
      ],
      "name": "addAffiliate",
      "outputs": [],
      "payable": false,
      "stateMutability": "nonpayable",
      "type": "function"
    },
    {
      "constant": false,
      "inputs": [
        {
          "name": "_affiliate",
          "type": "address"
        },
        {
          "name": "ipfsHash",
          "type": "bytes32"
        }
      ],
      "name": "removeAffiliate",
      "outputs": [],
      "payable": false,
      "stateMutability": "nonpayable",
      "type": "function"
    }
  ],
  "bytecode": "0x60806040523480156200001157600080fd5b5060405160208062002f8383398101604052516000805433600160a060020a0319918216811790911617905562000051816401000000006200008d810204565b506000805260036020527f3617319a054d772f909f7c479a2cebe5066e836a939412e32403c99029b92eff805460ff19166001179055620000c7565b600054600160a060020a03163314620000a557600080fd5b60048054600160a060020a031916600160a060020a0392909216919091179055565b612eac80620000d76000396000f30060806040526004361061015b5763ffffffff60e060020a6000350416631d34be47811461016057806328af94c8146101835780632ebd1e281461019b5780634d03a9a5146101bc57806351b182501461022f5780635f0da25b146102605780635fbe4d1d1461028a57806370809757146102bb578063715018a6146102d957806378572816146102ee5780637d19514d146103125780638da5cb5b1461032657806391f1f3101461033b578063963ff4cb146103655780639a8d10a31461039a5780639c3f7ca2146103b5578063a0823111146103d3578063a3111d7c146103f7578063bf77aa1f1461041e578063c73111dd1461043c578063c78b616c14610460578063ca27eb1c14610475578063cea4b6871461049c578063d9fefbf8146104c6578063de400629146104e4578063de74e57b14610513578063ebe65f6014610556578063f2fde38b14610574578063fde34dc414610595575b600080fd5b34801561016c57600080fd5b506101816004356024356044356064356105b3565b005b34801561018f57600080fd5b50610181600435610752565b3480156101a757600080fd5b50610181600160a060020a036004351661078b565b3480156101c857600080fd5b506101d76004356024356107c4565b60408051998a5260208a019890985288880196909652600160a060020a039485166060890152928416608088015290831660a087015290911660c085015260e084015260ff1661010083015251908190036101200190f35b610181600435602435604435600160a060020a036064358116906084359060a4359060c43581169060e43516610841565b34801561026c57600080fd5b50610181600435600160a060020a0360243516604435606435610cc3565b34801561029657600080fd5b5061029f610eef565b60408051600160a060020a039092168252519081900360200190f35b3480156102c757600080fd5b50610181600435602435604435610efe565b3480156102e557600080fd5b506101816110c6565b3480156102fa57600080fd5b50610181600160a060020a0360043516602435611125565b610181600435602435604435606435611198565b34801561033257600080fd5b5061029f611452565b34801561034757600080fd5b50610353600435611461565b60408051918252519081900360200190f35b34801561037157600080fd5b50610386600160a060020a0360043516611473565b604080519115158252519081900360200190f35b3480156103a657600080fd5b50610181600435602435611488565b3480156103c157600080fd5b506101816004356024356044356114c3565b3480156103df57600080fd5b50610181600160a060020a03600435166024356116b3565b34801561040357600080fd5b50610181600435600160a060020a0360243516604435611723565b34801561042a57600080fd5b50610181600435602435604435611958565b34801561044857600080fd5b50610181600435602435604435606435608435611969565b34801561046c57600080fd5b50610353611cc3565b34801561048157600080fd5b50610181600435602435600160a060020a0360443516611cc9565b3480156104a857600080fd5b50610386600160a060020a0360043516602435604435606435611cd5565b3480156104d257600080fd5b50610181600435602435604435611d51565b3480156104f057600080fd5b50610386600160a060020a03600435811690602435906044359060643516611d90565b34801561051f57600080fd5b5061052b600435611e01565b60408051600160a060020a039485168152602081019390935292168183015290519081900360600190f35b34801561056257600080fd5b50610181600435602435604435611e3d565b34801561058057600080fd5b50610181600160a060020a03600435166120ba565b3480156105a157600080fd5b506101816004356024356044356120dd565b60008481526002602052604081208054829190869081106105d057fe5b906000526020600020906009020191506001868154811015156105ef57fe5b600091825260209091206003909102018054909150600160a060020a03163314610663576040805160e560020a62461bcd02815260206004820152601060248201527f53656c6c6572206d7573742063616c6c00000000000000000000000000000000604482015290519081900360640190fd5b600882015460ff166002146106b0576040805160e560020a62461bcd0281526020600482015260126024820152600080516020612e41833981519152604482015290519081900360640190fd5b8154841115610709576040805160e560020a62461bcd02815260206004820152601060248201527f45786365737369766520726566756e6400000000000000000000000000000000604482015290519081900360640190fd5b600282018490556040805184815290518691889133917f9b7312a236066d2da679eba7e3a2e86d2d07a973819499846c0efd2fd2506c80919081900360200190a4505050505050565b60408051828152905133917f8e530f3a09c59fdf1b0d5ed714b7a5b94c059256cdc29b8521e9891734c6a2b7919081900360200190a250565b600054600160a060020a031633146107a257600080fd5b60048054600160a060020a031916600160a060020a0392909216919091179055565b6002602052816000526040600020818154811015156107df57fe5b60009182526020909120600990910201805460018201546002830154600384015460048501546005860154600687015460078801546008909801549699509497509295600160a060020a03928316959183169493831693909216919060ff1689565b3060009081526003602052604090205460ff1680806108785750600160a060020a03861660009081526003602052604090205460ff165b15156108ce576040805160e560020a62461bcd02815260206004820152601560248201527f416666696c69617465206e6f7420616c6c6f7765640000000000000000000000604482015290519081900360640190fd5b600160a060020a0386161515610934578415610934576040805160e560020a62461bcd02815260206004820152601d60248201527f636f6d6d697373696f6e20726571756972657320616666696c69617465000000604482015290519081900360640190fd5b600260008a8152602001908152602001600020610120604051908101604052808681526020018781526020016000815260200185600160a060020a0316815260200133600160a060020a0316815260200188600160a060020a0316815260200184600160a060020a03168152602001898152602001600160ff168152509080600181540180825580915050906001820390600052602060002090600902016000909192909190915060008201518160000155602082015181600101556040820151816002015560608201518160030160006101000a815481600160a060020a030219169083600160a060020a0316021790555060808201518160040160006101000a815481600160a060020a030219169083600160a060020a0316021790555060a08201518160050160006101000a815481600160a060020a030219169083600160a060020a0316021790555060c08201518160060160006101000a815481600160a060020a030219169083600160a060020a0316021790555060e082015181600701556101008201518160080160006101000a81548160ff021916908360ff16021790555050505082600160a060020a031660001415610b4b57348414610b46576040805160e560020a62461bcd02815260206004820152601d60248201527f4554482076616c756520646f65736e2774206d61746368206f66666572000000604482015290519081900360640190fd5b610c69565b3415610ba1576040805160e560020a62461bcd02815260206004820152601160248201527f45544820776f756c64206265206c6f7374000000000000000000000000000000604482015290519081900360640190fd5b6040805160e060020a6323b872dd028152336004820152306024820152604481018690529051600160a060020a038516916323b872dd9160648083019260209291908290030181600087803b158015610bf957600080fd5b505af1158015610c0d573d6000803e3d6000fd5b505050506040513d6020811015610c2357600080fd5b50511515610c69576040805160e560020a62461bcd0281526020600482015260136024820152600080516020612e61833981519152604482015290519081900360640190fd5b6000898152600260209081526040918290205482518b81529251600019909101928c9233927f6ee68cb753f284cf771c1a32c236d7ffcab6011345186a30e57837d761e868379281900390910190a4505050505050505050565b6000600185815481101515610cd457fe5b60009182526020909120600260039092020190810154909150600160a060020a03163314610d4c576040805160e560020a62461bcd02815260206004820152601860248201527f6465706f7369744d616e61676572206d7573742063616c6c0000000000000000604482015290519081900360640190fd5b6001810154831115610da8576040805160e560020a62461bcd02815260206004820152600e60248201527f56616c756520746f6f2068696768000000000000000000000000000000000000604482015290519081900360640190fd5b600181018054849003905560048054604080517fa9059cbb000000000000000000000000000000000000000000000000000000008152600160a060020a0388811694820194909452602481018790529051929091169163a9059cbb916044808201926020929091908290030181600087803b158015610e2657600080fd5b505af1158015610e3a573d6000803e3d6000fd5b505050506040513d6020811015610e5057600080fd5b50511515610ea8576040805160e560020a62461bcd02815260206004820152600f60248201527f5472616e73666572206661696c65640000000000000000000000000000000000604482015290519081900360640190fd5b6040805183815290518691600160a060020a038716917f9c9827b799328bcbadbd04862686713436136571c54d7ca0388bd952f314f8909181900360200190a35050505050565b600454600160a060020a031681565b600080600185815481101515610f1057fe5b906000526020600020906003020191506002600086815260200190815260200160002084815481101515610f4057fe5b600091825260209091206009909102016004810154909150600160a060020a0316331480610f7757508154600160a060020a031633145b1515610fcd576040805160e560020a62461bcd02815260206004820152601760248201527f4d7573742062652073656c6c6572206f72206275796572000000000000000000604482015290519081900360640190fd5b600881015460ff1660021461101a576040805160e560020a62461bcd0281526020600482015260126024820152600080516020612e41833981519152604482015290519081900360640190fd5b6007810154421115611076576040805160e560020a62461bcd02815260206004820152601160248201527f416c72656164792066696e616c697a6564000000000000000000000000000000604482015290519081900360640190fd5b60088101805460ff191660031790556040805184815290518591879133917f11c45991938e1dec0b00887cd2368a2195fccb46b08cc56483ac3053ddb609b2919081900360200190a45050505050565b600054600160a060020a031633146110dd57600080fd5b60008054604051600160a060020a03909116917ff8df31144d9c2f0f6b59d69b8b98abd5459d07f2742c4df920b25aae33c6482091a260008054600160a060020a0319169055565b600054600160a060020a0316331461113c57600080fd5b600160a060020a038216600081815260036020908152604091829020805460ff19166001179055815184815291517f5e48128fde8c162f70ea9f59d0a58f1d1cc40c2eec4b4c71356ab395650bfbdf9281900390910190a25050565b60008481526002602052604081208054859081106111b257fe5b600091825260209091206009909102016004810154909150600160a060020a03163314611229576040805160e560020a62461bcd02815260206004820152600f60248201527f4275796572206d7573742063616c6c0000000000000000000000000000000000604482015290519081900360640190fd5b600881015460ff16600214611276576040805160e560020a62461bcd0281526020600482015260126024820152600080516020612e41833981519152604482015290519081900360640190fd5b8054820181556003810154600160a060020a031615156112ec573482146112e7576040805160e560020a62461bcd02815260206004820152601560248201527f73656e7420213d206f6666657265642076616c75650000000000000000000000604482015290519081900360640190fd5b611411565b3415611342576040805160e560020a62461bcd02815260206004820152601460248201527f455448206d757374206e6f742062652073656e74000000000000000000000000604482015290519081900360640190fd5b60038101546040805160e060020a6323b872dd028152336004820152306024820152604481018590529051600160a060020a03909216916323b872dd916064808201926020929091908290030181600087803b1580156113a157600080fd5b505af11580156113b5573d6000803e3d6000fd5b505050506040513d60208110156113cb57600080fd5b50511515611411576040805160e560020a62461bcd0281526020600482015260136024820152600080516020612e61833981519152604482015290519081900360640190fd5b6040805184815290518591879133917f5f0e66c42b81a43cbd35b11ea0a599d0be1d8e1fdb61d1d4f7a98243ba6cc26b919081900360200190a45050505050565b600054600160a060020a031681565b60009081526002602052604090205490565b60036020526000908152604090205460ff1681565b604080518281529051839133917f12dc84d4005dd5b86fd88951106aa76927a62b83b85ba9c912a7268582906aa99181900360200190a35050565b6000806001858154811015156114d557fe5b90600052602060002090600302019150600260008681526020019081526020016000208481548110151561150557fe5b6000918252602090912083546009909202019150600160a060020a03163314611578576040805160e560020a62461bcd02815260206004820152601260248201527f53656c6c6572206d757374206163636570740000000000000000000000000000604482015290519081900360640190fd5b600881015460ff166001146115d7576040805160e560020a62461bcd02815260206004820152601160248201527f73746174757320213d2063726561746564000000000000000000000000000000604482015290519081900360640190fd5b600180820154908301541015611637576040805160e560020a62461bcd02815260206004820152601d60248201527f6465706f736974206d75737420636f76657220636f6d6d697373696f6e000000604482015290519081900360640190fd5b633b9aca008160070154101561165257600781018054420190555b600180820154908301805491909103905560088101805460ff191660021790556040805184815290518591879133917f449224201a35688b74a38ff24770e8b2a326ebf42357bf19a36f5fedbbe552a0919081900360200190a45050505050565b600054600160a060020a031633146116ca57600080fd5b600160a060020a038216600081815260036020908152604091829020805460ff19169055815184815291517f3553c89fbe376344fc3e6cfb39cce65e6d961cece468c297dad2a1e31d4fa2b69281900390910190a25050565b60008060018581548110151561173557fe5b600091825260209091206003909102016002810154909250600160a060020a031633146117ac576040805160e560020a62461bcd02815260206004820152601660248201527f4d757374206265206465706f7369744d616e6167657200000000000000000000604482015290519081900360640190fd5b600160a060020a038416151561180c576040805160e560020a62461bcd02815260206004820152600960248201527f4e6f207461726765740000000000000000000000000000000000000000000000604482015290519081900360640190fd5b5060018101805460009182905560048054604080517fa9059cbb000000000000000000000000000000000000000000000000000000008152600160a060020a03898116948201949094526024810185905290519394929091169263a9059cbb92604480840193602093929083900390910190829087803b15801561188f57600080fd5b505af11580156118a3573d6000803e3d6000fd5b505050506040513d60208110156118b957600080fd5b50511515611911576040805160e560020a62461bcd02815260206004820152600f60248201527f7472616e73666572206661696c65640000000000000000000000000000000000604482015290519081900360640190fd5b6040805184815290518691600160a060020a038716917fafa3dc4f271ef3419006f21140d375eba48ef3def56e8bfe6d54d0c72a81a3079181900360200190a35050505050565b6119643384848461241a565b505050565b6000611973612df4565b600180548890811061198157fe5b9060005260206000209060030201915060026000888152602001908152602001600020868154811015156119b157fe5b600091825260209182902060408051610120810182526009909302909101805483526001810154938301939093526002830154908201526003820154600160a060020a0390811660608301526004830154811660808301526005830154811660a083015260068301541660c08201819052600783015460e083015260089092015460ff1661010082015291503314611a93576040805160e560020a62461bcd02815260206004820152601260248201527f4d7573742062652061726269747261746f720000000000000000000000000000604482015290519081900360640190fd5b80610100015160ff166003141515611af5576040805160e560020a62461bcd02815260206004820152601260248201527f73746174757320213d2064697370757465640000000000000000000000000000604482015290519081900360640190fd5b8051831115611b4e576040805160e560020a62461bcd02815260206004820152600f60248201527f726566756e6420746f6f20686967680000000000000000000000000000000000604482015290519081900360640190fd5b6000878152600260205260409020805487908110611b6857fe5b600091825260208220600990910201818155600181018290556002808201839055600382018054600160a060020a0319908116909155600483018054821690556005830180548216905560068301805490911690556007820192909255600801805460ff191690558481161415611bf057611beb8160a0015182602001516125d1565b611c1e565b60208101516001805489908110611c0357fe5b60009182526020909120600160039092020101805490910190555b8360011660011415611c4657611c418160800151826060015183600001516126d9565b611c6a565b8154608082015160608301518351611c6a93600160a060020a03169291908761284e565b60c08101516040805187815260208101879052815189938b93600160a060020a03909116927f3e4d55eb2a402ba6f500db5d75f9303dfe863a2e8319054aeddb6a35ec7e3c61929081900390910190a450505050505050565b60015490565b61196433848484612b2e565b600454600090600160a060020a03163314611d3a576040805160e560020a62461bcd02815260206004820152600f60248201527f546f6b656e206d7573742063616c6c0000000000000000000000000000000000604482015290519081900360640190fd5b611d468585858561241a565b506001949350505050565b6040805182815290518391859133917f9b7312a236066d2da679eba7e3a2e86d2d07a973819499846c0efd2fd2506c80919081900360200190a4505050565b600454600090600160a060020a03163314611df5576040805160e560020a62461bcd02815260206004820152600f60248201527f546f6b656e206d7573742063616c6c0000000000000000000000000000000000604482015290519081900360640190fd5b611d4685858585612b2e565b6001805482908110611e0f57fe5b6000918252602090912060039091020180546001820154600290920154600160a060020a0391821693501683565b6000611e47612df4565b6001805486908110611e5557fe5b906000526020600020906003020191506002600086815260200190815260200160002084815481101515611e8557fe5b600091825260209182902060408051610120810182526009909302909101805483526001810154938301939093526002830154908201526003820154600160a060020a03908116606083015260048301548116608083018190526005840154821660a0840152600684015490911660c0830152600783015460e083015260089092015460ff166101008201529150331480611f2957508154600160a060020a031633145b1515611f7f576040805160e560020a62461bcd02815260206004820152601d60248201527f5265737472696374656420746f206275796572206f722073656c6c6572000000604482015290519081900360640190fd5b80610100015160ff166001141515611fe1576040805160e560020a62461bcd02815260206004820152601160248201527f73746174757320213d2063726561746564000000000000000000000000000000604482015290519081900360640190fd5b6000858152600260205260409020805485908110611ffb57fe5b6000918252602082206009909102018181556001810182905560028101829055600381018054600160a060020a0319908116909155600482018054821690556005820180548216905560068201805490911690556007810191909155600801805460ff191690556080810151606082015182516120799291906126d9565b6040805184815290518591879133917fe9ae767ab1c8f3f874a5b2810a1f6323b43283a5b462b52a4de5f8ed53a4fe25919081900360200190a45050505050565b600054600160a060020a031633146120d157600080fd5b6120da81612d84565b50565b60006120e7612df4565b60018054869081106120f557fe5b90600052602060002090600302019150600260008681526020019081526020016000208481548110151561212557fe5b600091825260209182902060408051610120810182526009909302909101805483526001810154938301939093526002830154908201526003820154600160a060020a0390811660608301526004830154811660808301526005830154811660a083015260068301541660c0820152600782015460e0820181905260089092015460ff1661010082015291504211612220576080810151600160a060020a0316331461221b576040805160e560020a62461bcd02815260206004820152601760248201527f4f6e6c792062757965722063616e2066696e616c697a65000000000000000000604482015290519081900360640190fd5b6122a3565b8060800151600160a060020a031633600160a060020a0316148061224d57508154600160a060020a031633145b15156122a3576040805160e560020a62461bcd02815260206004820152601d60248201527f53656c6c6572206f72206275796572206d7573742066696e616c697a65000000604482015290519081900360640190fd5b80610100015160ff1660021415156122f3576040805160e560020a62461bcd0281526020600482015260126024820152600080516020612e41833981519152604482015290519081900360640190fd5b600085815260026020526040902080548590811061230d57fe5b600091825260208220600991909102018181556001810182905560028101829055600381018054600160a060020a0319908116909155600482018054821690556005820180548216905560068201805490911690556007810191909155600801805460ff191690556080810151600160a060020a0316331461239e57602081015160018301805490910190556123b0565b6123b08160a0015182602001516125d1565b815460808201516060830151835160408501516123d994600160a060020a03169392919061284e565b6040805184815290518591879133917fbfefa76df66ac53c6517b1939b14bfc4d5fdf714b93a71aea2e50977d1b3b8e6919081900360200190a45050505050565b600060018481548110151561242b57fe5b600091825260209091206003909102018054909150600160a060020a038681169116146124a2576040805160e560020a62461bcd02815260206004820152601060248201527f53656c6c6572206d7573742063616c6c00000000000000000000000000000000604482015290519081900360640190fd5b60008211156125885760018101805483019055600480546040805160e060020a6323b872dd028152600160a060020a038981169482019490945230602482015260448101869052905192909116916323b872dd916064808201926020929091908290030181600087803b15801561251857600080fd5b505af115801561252c573d6000803e3d6000fd5b505050506040513d602081101561254257600080fd5b50511515612588576040805160e560020a62461bcd0281526020600482015260136024820152600080516020612e61833981519152604482015290519081900360640190fd5b80546040805185815290518692600160a060020a0316917f470503ad37642fff73a57bac35e69733b6b38281a893f39b50c285aad1f040e0919081900360200190a35050505050565b600160a060020a038216156126d55760048054604080517fa9059cbb000000000000000000000000000000000000000000000000000000008152600160a060020a0386811694820194909452602481018590529051929091169163a9059cbb916044808201926020929091908290030181600087803b15801561265357600080fd5b505af1158015612667573d6000803e3d6000fd5b505050506040513d602081101561267d57600080fd5b505115156126d5576040805160e560020a62461bcd02815260206004820152601a60248201527f436f6d6d697373696f6e207472616e73666572206661696c6564000000000000604482015290519081900360640190fd5b5050565b600160a060020a038216151561276957604051600160a060020a0384169082156108fc029083906000818181858888f193505050501515612764576040805160e560020a62461bcd02815260206004820152601160248201527f45544820726566756e64206661696c6564000000000000000000000000000000604482015290519081900360640190fd5b611964565b81600160a060020a031663a9059cbb84836040518363ffffffff1660e060020a0281526004018083600160a060020a0316600160a060020a0316815260200182815260200192505050602060405180830381600087803b1580156127cc57600080fd5b505af11580156127e0573d6000803e3d6000fd5b505050506040513d60208110156127f657600080fd5b50511515611964576040805160e560020a62461bcd02815260206004820152600d60248201527f526566756e64206661696c656400000000000000000000000000000000000000604482015290519081900360640190fd5b808203600160a060020a038416151561295c57604051600160a060020a0386169083156108fc029084906000818181858888f1935050505015156128dc576040805160e560020a62461bcd02815260206004820152601160248201527f45544820726566756e64206661696c6564000000000000000000000000000000604482015290519081900360640190fd5b604051600160a060020a0387169082156108fc029083906000818181858888f193505050501515612957576040805160e560020a62461bcd02815260206004820152600f60248201527f4554482073656e64206661696c65640000000000000000000000000000000000604482015290519081900360640190fd5b612b26565b83600160a060020a031663a9059cbb86846040518363ffffffff1660e060020a0281526004018083600160a060020a0316600160a060020a0316815260200182815260200192505050602060405180830381600087803b1580156129bf57600080fd5b505af11580156129d3573d6000803e3d6000fd5b505050506040513d60208110156129e957600080fd5b50511515612a41576040805160e560020a62461bcd02815260206004820152600d60248201527f526566756e64206661696c656400000000000000000000000000000000000000604482015290519081900360640190fd5b83600160a060020a031663a9059cbb87836040518363ffffffff1660e060020a0281526004018083600160a060020a0316600160a060020a0316815260200182815260200192505050602060405180830381600087803b158015612aa457600080fd5b505af1158015612ab8573d6000803e3d6000fd5b505050506040513d6020811015612ace57600080fd5b50511515612b26576040805160e560020a62461bcd02815260206004820152600f60248201527f5472616e73666572206661696c65640000000000000000000000000000000000604482015290519081900360640190fd5b505050505050565b600160a060020a0381161515612b8e576040805160e560020a62461bcd02815260206004820152601b60248201527f4d7573742073706563696679206465706f7369744d616e616765720000000000604482015290519081900360640190fd5b60408051606081018252600160a060020a038087168252602082018581528482169383019384526001805480820182556000918252935160039094027fb10e2d527612073b26eecdfd717e6a320cf44b4afac2b0732d9fcbe2b7fa0cf681018054958516600160a060020a031996871617905591517fb10e2d527612073b26eecdfd717e6a320cf44b4afac2b0732d9fcbe2b7fa0cf783015593517fb10e2d527612073b26eecdfd717e6a320cf44b4afac2b0732d9fcbe2b7fa0cf89091018054919092169216919091179055821115612d3557600480546040805160e060020a6323b872dd028152600160a060020a038881169482019490945230602482015260448101869052905192909116916323b872dd916064808201926020929091908290030181600087803b158015612cc557600080fd5b505af1158015612cd9573d6000803e3d6000fd5b505050506040513d6020811015612cef57600080fd5b50511515612d35576040805160e560020a62461bcd0281526020600482015260136024820152600080516020612e61833981519152604482015290519081900360640190fd5b60015460408051858152905160001990920191600160a060020a038716917fec3d306143145322b45d2788d826e3b7b9ad062f16e1ec59a5eaba214f96ee3c919081900360200190a350505050565b600160a060020a0381161515612d9957600080fd5b60008054604051600160a060020a03808516939216917f8be0079c531659141344cd1fd0a4f28419497f9722a3daafe3b4186f6b6457e091a360008054600160a060020a031916600160a060020a0392909216919091179055565b6040805161012081018252600080825260208201819052918101829052606081018290526080810182905260a0810182905260c0810182905260e0810182905261010081019190915290560073746174757320213d20616363657074656400000000000000000000000000007472616e7366657246726f6d206661696c656400000000000000000000000000a165627a7a7230582047763e91afb24b6b1ed702805a3848870390f4fe598840905c0904c6463be0e60029",
  "source": "pragma solidity ^0.4.24;\n\n/*\n * Origin Protocol\n * https://originprotocol.com\n *\n * Released under the MIT license\n * https://github.com/OriginProtocol\n *\n * Copyright 2019 Origin Protocol, Inc\n *\n * Permission is hereby granted, free of charge, to any person obtaining a copy\n * of this software and associated documentation files (the \"Software\"), to deal\n * in the Software without restriction, including without limitation the rights\n * to use, copy, modify, merge, publish, distribute, sublicense, and/or sell\n * copies of the Software, and to permit persons to whom the Software is\n * furnished to do so, subject to the following conditions:\n *\n * The above copyright notice and this permission notice shall be included in\n * all copies or substantial portions of the Software.\n *\n * THE SOFTWARE IS PROVIDED \"AS IS\", WITHOUT WARRANTY OF ANY KIND, EXPRESS OR\n * IMPLIED, INCLUDING BUT NOT LIMITED TO THE WARRANTIES OF MERCHANTABILITY,\n * FITNESS FOR A PARTICULAR PURPOSE AND NONINFRINGEMENT. IN NO EVENT SHALL THE\n * AUTHORS OR COPYRIGHT HOLDERS BE LIABLE FOR ANY CLAIM, DAMAGES OR OTHER\n * LIABILITY, WHETHER IN AN ACTION OF CONTRACT, TORT OR OTHERWISE, ARISING FROM,\n * OUT OF OR IN CONNECTION WITH THE SOFTWARE OR THE USE OR OTHER DEALINGS IN THE\n * SOFTWARE.\n */\n\nimport \"../../node_modules/openzeppelin-solidity/contracts/ownership/Ownable.sol\";\n\n\ncontract ERC20 {\n    function transfer(address _to, uint256 _value) external returns (bool);\n    function transferFrom(address _from, address _to, uint256 _value) external returns (bool);\n}\n\n\n/**\n * @title A Marketplace contract for managing listings, offers, payments, escrow and arbitration\n *\n * Listings may be priced in ETH or ERC20.\n */\ncontract V01_Marketplace is Ownable {\n\n    /**\n    * @notice All events have the same indexed signature offsets for easy filtering\n    */\n    event MarketplaceData  (address indexed party, bytes32 ipfsHash);\n    event AffiliateAdded   (address indexed party, bytes32 ipfsHash);\n    event AffiliateRemoved (address indexed party, bytes32 ipfsHash);\n    event ListingCreated   (address indexed party, uint indexed listingID, bytes32 ipfsHash);\n    event ListingUpdated   (address indexed party, uint indexed listingID, bytes32 ipfsHash);\n    event ListingWithdrawn (address indexed party, uint indexed listingID, bytes32 ipfsHash);\n    event ListingArbitrated(address indexed party, uint indexed listingID, bytes32 ipfsHash);\n    event ListingData      (address indexed party, uint indexed listingID, bytes32 ipfsHash);\n    event OfferCreated     (address indexed party, uint indexed listingID, uint indexed offerID, bytes32 ipfsHash);\n    event OfferAccepted    (address indexed party, uint indexed listingID, uint indexed offerID, bytes32 ipfsHash);\n    event OfferFinalized   (address indexed party, uint indexed listingID, uint indexed offerID, bytes32 ipfsHash);\n    event OfferWithdrawn   (address indexed party, uint indexed listingID, uint indexed offerID, bytes32 ipfsHash);\n    event OfferFundsAdded  (address indexed party, uint indexed listingID, uint indexed offerID, bytes32 ipfsHash);\n    event OfferDisputed    (address indexed party, uint indexed listingID, uint indexed offerID, bytes32 ipfsHash);\n    event OfferRuling      (address indexed party, uint indexed listingID, uint indexed offerID, bytes32 ipfsHash, uint ruling);\n    event OfferData        (address indexed party, uint indexed listingID, uint indexed offerID, bytes32 ipfsHash);\n\n    struct Listing {\n        address seller;     // Seller wallet / identity contract / other contract\n        uint deposit;       // Deposit in Origin Token\n        address depositManager; // Address that decides token distribution\n    }\n\n    struct Offer {\n        uint value;         // Amount in Eth or ERC20 buyer is offering\n        uint commission;    // Amount of commission earned if offer is finalized\n        uint refund;        // Amount to refund buyer upon finalization\n        ERC20 currency;     // Currency of listing\n        address buyer;      // Buyer wallet / identity contract / other contract\n        address affiliate;  // Address to send any commission\n        address arbitrator; // Address that settles disputes\n        uint finalizes;     // Timestamp offer finalizes\n        uint8 status;       // 0: Undefined, 1: Created, 2: Accepted, 3: Disputed\n    }\n\n    Listing[] public listings;\n    mapping(uint => Offer[]) public offers; // listingID => Offers\n    mapping(address => bool) public allowedAffiliates;\n\n    ERC20 public tokenAddr; // Origin Token address\n\n    constructor(address _tokenAddr) public {\n        owner = msg.sender;\n        setTokenAddr(_tokenAddr); // Origin Token contract\n        allowedAffiliates[0x0] = true; // Allow null affiliate by default\n    }\n\n    // @dev Return the total number of listings\n    function totalListings() public view returns (uint) {\n        return listings.length;\n    }\n\n    // @dev Return the total number of offers\n    function totalOffers(uint listingID) public view returns (uint) {\n        return offers[listingID].length;\n    }\n\n    // @dev Seller creates listing\n    function createListing(bytes32 _ipfsHash, uint _deposit, address _depositManager)\n        public\n    {\n        _createListing(msg.sender, _ipfsHash, _deposit, _depositManager);\n    }\n\n    // @dev Can only be called by token\n    function createListingWithSender(\n        address _seller,\n        bytes32 _ipfsHash,\n        uint _deposit,\n        address _depositManager\n    )\n        public returns (bool)\n    {\n        require(msg.sender == address(tokenAddr), \"Token must call\");\n        _createListing(_seller, _ipfsHash, _deposit, _depositManager);\n        return true;\n    }\n\n    // Private\n    function _createListing(\n        address _seller,\n        bytes32 _ipfsHash,  // IPFS JSON with details, pricing, availability\n        uint _deposit,      // Deposit in Origin Token\n        address _depositManager // Address of listing depositManager\n    )\n        private\n    {\n        /* require(_deposit > 0); // Listings must deposit some amount of Origin Token */\n        require(_depositManager != 0x0, \"Must specify depositManager\");\n\n        listings.push(Listing({\n            seller: _seller,\n            deposit: _deposit,\n            depositManager: _depositManager\n        }));\n\n        if (_deposit > 0) {\n            require(\n                tokenAddr.transferFrom(_seller, this, _deposit), // Transfer Origin Token\n                \"transferFrom failed\"\n            );\n        }\n        emit ListingCreated(_seller, listings.length - 1, _ipfsHash);\n    }\n\n    // @dev Seller updates listing\n    function updateListing(\n        uint listingID,\n        bytes32 _ipfsHash,\n        uint _additionalDeposit\n    ) public {\n        _updateListing(msg.sender, listingID, _ipfsHash, _additionalDeposit);\n    }\n\n    function updateListingWithSender(\n        address _seller,\n        uint listingID,\n        bytes32 _ipfsHash,\n        uint _additionalDeposit\n    )\n        public returns (bool)\n    {\n        require(msg.sender == address(tokenAddr), \"Token must call\");\n        _updateListing(_seller, listingID, _ipfsHash, _additionalDeposit);\n        return true;\n    }\n\n    function _updateListing(\n        address _seller,\n        uint listingID,\n        bytes32 _ipfsHash,      // Updated IPFS hash\n        uint _additionalDeposit // Additional deposit to add\n    ) private {\n        Listing storage listing = listings[listingID];\n        require(listing.seller == _seller, \"Seller must call\");\n\n        if (_additionalDeposit > 0) {\n            listing.deposit += _additionalDeposit;\n            require(\n                tokenAddr.transferFrom(_seller, this, _additionalDeposit),\n                \"transferFrom failed\"\n            );\n        }\n\n        emit ListingUpdated(listing.seller, listingID, _ipfsHash);\n    }\n\n    // @dev Listing depositManager withdraws listing. IPFS hash contains reason for withdrawl.\n    function withdrawListing(uint listingID, address _target, bytes32 _ipfsHash) public {\n        Listing storage listing = listings[listingID];\n        require(msg.sender == listing.depositManager, \"Must be depositManager\");\n        require(_target != 0x0, \"No target\");\n        uint deposit = listing.deposit;\n        listing.deposit = 0; // Prevent multiple deposit withdrawals\n        require(tokenAddr.transfer(_target, deposit), \"transfer failed\"); // Send deposit to target\n        emit ListingWithdrawn(_target, listingID, _ipfsHash);\n    }\n\n    // @dev Buyer makes offer.\n    function makeOffer(\n        uint listingID,\n        bytes32 _ipfsHash,   // IPFS hash containing offer data\n        uint _finalizes,     // Timestamp an accepted offer will finalize\n        address _affiliate,  // Address to send any required commission to\n        uint256 _commission, // Amount of commission to send in Origin Token if offer finalizes\n        uint _value,         // Offer amount in ERC20 or Eth\n        ERC20 _currency,     // ERC20 token address or 0x0 for Eth\n        address _arbitrator  // Escrow arbitrator\n    )\n        public\n        payable\n    {\n        bool affiliateWhitelistDisabled = allowedAffiliates[address(this)];\n        require(\n            affiliateWhitelistDisabled || allowedAffiliates[_affiliate],\n            \"Affiliate not allowed\"\n        );\n\n        if (_affiliate == 0x0) {\n            // Avoid commission tokens being trapped in marketplace contract.\n            require(_commission == 0, \"commission requires affiliate\");\n        }\n\n        offers[listingID].push(Offer({\n            status: 1,\n            buyer: msg.sender,\n            finalizes: _finalizes,\n            affiliate: _affiliate,\n            commission: _commission,\n            currency: _currency,\n            value: _value,\n            arbitrator: _arbitrator,\n            refund: 0\n        }));\n\n        if (address(_currency) == 0x0) { // Listing is in ETH\n            require(msg.value == _value, \"ETH value doesn't match offer\");\n        } else { // Listing is in ERC20\n            require(msg.value == 0, \"ETH would be lost\");\n            require(\n                _currency.transferFrom(msg.sender, this, _value),\n                \"transferFrom failed\"\n            );\n        }\n\n        emit OfferCreated(msg.sender, listingID, offers[listingID].length-1, _ipfsHash);\n    }\n\n    // @dev Seller accepts offer\n    function acceptOffer(uint listingID, uint offerID, bytes32 _ipfsHash) public {\n        Listing storage listing = listings[listingID];\n        Offer storage offer = offers[listingID][offerID];\n        require(msg.sender == listing.seller, \"Seller must accept\");\n        require(offer.status == 1, \"status != created\");\n        require(\n            listing.deposit >= offer.commission,\n            \"deposit must cover commission\"\n        );\n        if (offer.finalizes < 1000000000) { // Relative finalization window\n            offer.finalizes = now + offer.finalizes;\n        }\n        listing.deposit -= offer.commission; // Accepting an offer puts Origin Token into escrow\n        offer.status = 2; // Set offer to 'Accepted'\n        emit OfferAccepted(msg.sender, listingID, offerID, _ipfsHash);\n    }\n\n    // @dev Buyer withdraws offer. IPFS hash contains reason for withdrawl.\n    function withdrawOffer(uint listingID, uint offerID, bytes32 _ipfsHash) public {\n        Listing storage listing = listings[listingID];\n        Offer memory offer = offers[listingID][offerID];\n        require(\n            msg.sender == offer.buyer || msg.sender == listing.seller,\n            \"Restricted to buyer or seller\"\n        );\n        require(offer.status == 1, \"status != created\");\n        delete offers[listingID][offerID];\n        refundBuyer(offer.buyer, offer.currency, offer.value);\n        emit OfferWithdrawn(msg.sender, listingID, offerID, _ipfsHash);\n    }\n\n    // @dev Buyer adds extra funds to an accepted offer.\n    function addFunds(uint listingID, uint offerID, bytes32 _ipfsHash, uint _value) public payable {\n        Offer storage offer = offers[listingID][offerID];\n        require(msg.sender == offer.buyer, \"Buyer must call\");\n        require(offer.status == 2, \"status != accepted\");\n        offer.value += _value;\n        if (address(offer.currency) == 0x0) { // Listing is in ETH\n            require(\n                msg.value == _value,\n                \"sent != offered value\"\n            );\n        } else { // Listing is in ERC20\n            require(msg.value == 0, \"ETH must not be sent\");\n            require(\n                offer.currency.transferFrom(msg.sender, this, _value),\n                \"transferFrom failed\"\n            );\n        }\n        emit OfferFundsAdded(msg.sender, listingID, offerID, _ipfsHash);\n    }\n\n    // @dev Buyer must finalize transaction to receive commission\n    function finalize(uint listingID, uint offerID, bytes32 _ipfsHash) public {\n        Listing storage listing = listings[listingID];\n        Offer memory offer = offers[listingID][offerID];\n        if (now <= offer.finalizes) { // Only buyer can finalize before finalization window\n            require(\n                msg.sender == offer.buyer,\n                \"Only buyer can finalize\"\n            );\n        } else { // Allow both seller and buyer to finalize if finalization window has passed\n            require(\n                msg.sender == offer.buyer || msg.sender == listing.seller,\n                \"Seller or buyer must finalize\"\n            );\n        }\n        require(offer.status == 2, \"status != accepted\");\n        delete offers[listingID][offerID];\n\n        if (msg.sender != offer.buyer) {\n            listing.deposit += offer.commission; // Refund commission to seller\n        } else {\n            // Only pay commission if buyer is finalizing\n            payCommission(offer.affiliate, offer.commission);\n        }\n\n        paySeller(listing.seller, offer.buyer, offer.currency, offer.value, offer.refund); // Pay seller\n\n        emit OfferFinalized(msg.sender, listingID, offerID, _ipfsHash);\n    }\n\n    // @dev Buyer or seller can dispute transaction during finalization window\n    function dispute(uint listingID, uint offerID, bytes32 _ipfsHash) public {\n        Listing storage listing = listings[listingID];\n        Offer storage offer = offers[listingID][offerID];\n        require(\n            msg.sender == offer.buyer || msg.sender == listing.seller,\n            \"Must be seller or buyer\"\n        );\n        require(offer.status == 2, \"status != accepted\");\n        require(now <= offer.finalizes, \"Already finalized\");\n        offer.status = 3; // Set status to \"Disputed\"\n        emit OfferDisputed(msg.sender, listingID, offerID, _ipfsHash);\n    }\n\n    // @dev Called by arbitrator\n    function executeRuling(\n        uint listingID,\n        uint offerID,\n        bytes32 _ipfsHash,\n        uint _ruling, // 0: Seller, 1: Buyer, 2: Com + Seller, 3: Com + Buyer\n        uint _refund\n    ) public {\n        Listing storage listing = listings[listingID];\n        Offer memory offer = offers[listingID][offerID];\n        require(msg.sender == offer.arbitrator, \"Must be arbitrator\");\n        require(offer.status == 3, \"status != disputed\");\n        require(_refund <= offer.value, \"refund too high\");\n        delete offers[listingID][offerID];\n        if (_ruling & 2 == 2) {\n            payCommission(offer.affiliate, offer.commission);\n        } else  { // Refund commission to seller\n            listings[listingID].deposit += offer.commission;\n        }\n        if (_ruling & 1 == 1) {\n            refundBuyer(offer.buyer, offer.currency, offer.value);\n        } else  {\n            paySeller(listing.seller, offer.buyer, offer.currency, offer.value, _refund); // Pay seller\n        }\n        emit OfferRuling(offer.arbitrator, listingID, offerID, _ipfsHash, _ruling);\n    }\n\n    // @dev Sets the amount that a seller wants to refund to a buyer.\n    function updateRefund(uint listingID, uint offerID, uint _refund, bytes32 _ipfsHash) public {\n        Offer storage offer = offers[listingID][offerID];\n        Listing storage listing = listings[listingID];\n        require(msg.sender == listing.seller, \"Seller must call\");\n        require(offer.status == 2, \"status != accepted\");\n        require(_refund <= offer.value, \"Excessive refund\");\n        offer.refund = _refund;\n        emit OfferData(msg.sender, listingID, offerID, _ipfsHash);\n    }\n\n    // @dev Refunds buyer in ETH or ERC20 - used by 1) executeRuling() and 2) to allow a seller to refund a purchase\n    function refundBuyer(address buyer, ERC20 currency, uint value) private {\n        if (address(currency) == 0x0) {\n            require(buyer.send(value), \"ETH refund failed\");\n        } else {\n            require(\n                currency.transfer(buyer, value),\n                \"Refund failed\"\n            );\n        }\n    }\n\n    // @dev Pay seller in ETH or ERC20\n    function paySeller(address seller, address buyer, ERC20 currency, uint offerValue, uint offerRefund) private {\n        uint value = offerValue - offerRefund;\n\n        if (address(currency) == 0x0) {\n            require(buyer.send(offerRefund), \"ETH refund failed\");\n            require(seller.send(value), \"ETH send failed\");\n        } else {\n            require(\n                currency.transfer(buyer, offerRefund),\n                \"Refund failed\"\n            );\n            require(\n                currency.transfer(seller, value),\n                \"Transfer failed\"\n            );\n        }\n    }\n\n    // @dev Pay commission to affiliate\n    function payCommission(address affiliate, uint commission) private {\n        if (affiliate != 0x0) {\n            require(\n                tokenAddr.transfer(affiliate, commission),\n                \"Commission transfer failed\"\n            );\n        }\n    }\n\n    // @dev Associate ipfs data with the marketplace\n    function addData(bytes32 ipfsHash) public {\n        emit MarketplaceData(msg.sender, ipfsHash);\n    }\n\n    // @dev Associate ipfs data with a listing\n    function addData(uint listingID, bytes32 ipfsHash) public {\n        emit ListingData(msg.sender, listingID, ipfsHash);\n    }\n\n    // @dev Associate ipfs data with an offer\n    function addData(uint listingID, uint offerID, bytes32 ipfsHash) public {\n        emit OfferData(msg.sender, listingID, offerID, ipfsHash);\n    }\n\n    // @dev Allow listing depositManager to send deposit\n    function sendDeposit(uint listingID, address target, uint value, bytes32 ipfsHash) public {\n        Listing storage listing = listings[listingID];\n        require(listing.depositManager == msg.sender, \"depositManager must call\");\n        require(listing.deposit >= value, \"Value too high\");\n        listing.deposit -= value;\n        require(tokenAddr.transfer(target, value), \"Transfer failed\");\n        emit ListingArbitrated(target, listingID, ipfsHash);\n    }\n\n    // @dev Set the address of the Origin token contract\n    function setTokenAddr(address _tokenAddr) public onlyOwner {\n        tokenAddr = ERC20(_tokenAddr);\n    }\n\n    // @dev Add affiliate to whitelist. Set to address(this) to disable.\n    function addAffiliate(address _affiliate, bytes32 ipfsHash) public onlyOwner {\n        allowedAffiliates[_affiliate] = true;\n        emit AffiliateAdded(_affiliate, ipfsHash);\n    }\n\n    // @dev Remove affiliate from whitelist.\n    function removeAffiliate(address _affiliate, bytes32 ipfsHash) public onlyOwner {\n        delete allowedAffiliates[_affiliate];\n        emit AffiliateRemoved(_affiliate, ipfsHash);\n    }\n}\n",
  "sourcePath": "/Users/franck/src/dshop/packages/contracts/contracts/marketplace/V01_Marketplace.sol",
  "compiler": {
    "name": "solc",
    "version": "0.4.26+commit.4563c3fc.Emscripten.clang"
  },
  "schemaVersion": "2.0.3",
  "updatedAt": "2020-05-21T21:03:27.661Z"
}